:1000000075900075800074003090022401309102D8
:10001000240230920224043093022408F5F0B40044
:100020000675803F0200C0E5F0B401067580060247
:1000300000C0E5F0B4020675805B0200C0E5F0B4D4
:10004000030675804F0200C0E5F0B40406758066B3
:100050000200C0E5F0B4050675806D0200C0E5F051
:10006000B4060575807D8058E5F0B40705758007F6
:10007000804EE5F0B4080575807F8044E5F0B40952
:1000800005758067803AE5F0B40A057580778030A1
:10009000E5F0B40B0575807C8026E5F0B40C0575A1
:1000A0008039801CE5F0B40D0575805E8012E5F0A6
:1000B000B40E057580798008E5F0B40F0375807182
:0100C000003F
:00000001FF
